{
  "_format": "hh-sol-artifact-1",
  "contractName": "AutonomousBountyDuel",
  "sourceName": "contracts/AutonomousBountyDuel_Remix.sol",
  "abi": [
    {
      "inputs": [],
      "stateMutability": "nonpayable",
      "type": "constructor"
    },
    {
      "inputs": [
        {
          "internalType": "address",
          "name": "sender",
          "type": "address"
        },
        {
          "internalType": "uint256",
          "name": "tokenId",
          "type": "uint256"
        },
        {
          "internalType": "address",
          "name": "owner",
          "type": "address"
        }
      ],
      "name": "ERC721IncorrectOwner",
      "type": "error"
    },
    {
      "inputs": [
        {
          "internalType": "address",
          "name": "operator",
          "type": "address"
        },
        {
          "internalType": "uint256",
          "name": "tokenId",
          "type": "uint256"
        }
      ],
      "name": "ERC721InsufficientApproval",
      "type": "error"
    },
    {
      "inputs": [
        {
          "internalType": "address",
          "name": "approver",
          "type": "address"
        }
      ],
      "name": "ERC721InvalidApprover",
      "type": "error"
    },
    {
      "inputs": [
        {
          "internalType": "address",
          "name": "operator",
          "type": "address"
        }
      ],
      "name": "ERC721InvalidOperator",
      "type": "error"
    },
    {
      "inputs": [
        {
          "internalType": "address",
          "name": "owner",
          "type": "address"
        }
      ],
      "name": "ERC721InvalidOwner",
      "type": "error"
    },
    {
      "inputs": [
        {
          "internalType": "address",
          "name": "receiver",
          "type": "address"
        }
      ],
      "name": "ERC721InvalidReceiver",
      "type": "error"
    },
    {
      "inputs": [
        {
          "internalType": "address",
          "name": "sender",
          "type": "address"
        }
      ],
      "name": "ERC721InvalidSender",
      "type": "error"
    },
    {
      "inputs": [
        {
          "internalType": "uint256",
          "name": "tokenId",
          "type": "uint256"
        }
      ],
      "name": "ERC721NonexistentToken",
      "type": "error"
    },
    {
      "anonymous": false,
      "inputs": [
        {
          "indexed": true,
          "internalType": "address",
          "name": "owner",
          "type": "address"
        },
        {
          "indexed": true,
          "internalType": "address",
          "name": "approved",
          "type": "address"
        },
        {
          "indexed": true,
          "internalType": "uint256",
          "name": "tokenId",
          "type": "uint256"
        }
      ],
      "name": "Approval",
      "type": "event"
    },
    {
      "anonymous": false,
      "inputs": [
        {
          "indexed": true,
          "internalType": "address",
          "name": "owner",
          "type": "address"
        },
        {
          "indexed": true,
          "internalType": "address",
          "name": "operator",
          "type": "address"
        },
        {
          "indexed": false,
          "internalType": "bool",
          "name": "approved",
          "type": "bool"
        }
      ],
      "name": "ApprovalForAll",
      "type": "event"
    },
    {
      "anonymous": false,
      "inputs": [
        {
          "indexed": true,
          "internalType": "uint256",
          "name": "bountyId",
          "type": "uint256"
        },
        {
          "indexed": true,
          "internalType": "address",
          "name": "poster",
          "type": "address"
        },
        {
          "indexed": true,
          "internalType": "address",
          "name": "target",
          "type": "address"
        },
        {
          "indexed": false,
          "internalType": "uint256",
          "name": "amount",
          "type": "uint256"
        }
      ],
      "name": "BountyPosted",
      "type": "event"
    },
    {
      "anonymous": false,
      "inputs": [
        {
          "indexed": true,
          "internalType": "address",
          "name": "owner",
          "type": "address"
        },
        {
          "indexed": true,
          "internalType": "uint256",
          "name": "tokenId",
          "type": "uint256"
        },
        {
          "indexed": false,
          "internalType": "uint64",
          "name": "hp",
          "type": "uint64"
        },
        {
          "indexed": false,
          "internalType": "uint64",
          "name": "attack",
          "type": "uint64"
        },
        {
          "indexed": false,
          "internalType": "uint64",
          "name": "defense",
          "type": "uint64"
        }
      ],
      "name": "CharacterMinted",
      "type": "event"
    },
    {
      "anonymous": false,
      "inputs": [
        {
          "indexed": true,
          "internalType": "address",
          "name": "owner",
          "type": "address"
        },
        {
          "indexed": true,
          "internalType": "uint256",
          "name": "tokenId",
          "type": "uint256"
        },
        {
          "indexed": false,
          "internalType": "uint64",
          "name": "hp",
          "type": "uint64"
        },
        {
          "indexed": false,
          "internalType": "uint64",
          "name": "attack",
          "type": "uint64"
        },
        {
          "indexed": false,
          "internalType": "uint64",
          "name": "defense",
          "type": "uint64"
        },
        {
          "indexed": false,
          "internalType": "uint32",
          "name": "wins",
          "type": "uint32"
        },
        {
          "indexed": false,
          "internalType": "uint32",
          "name": "losses",
          "type": "uint32"
        }
      ],
      "name": "CharacterUpdated",
      "type": "event"
    },
    {
      "anonymous": false,
      "inputs": [
        {
          "indexed": true,
          "internalType": "uint256",
          "name": "duelId",
          "type": "uint256"
        },
        {
          "indexed": true,
          "internalType": "address",
          "name": "target",
          "type": "address"
        },
        {
          "indexed": false,
          "internalType": "uint256",
          "name": "targetStake",
          "type": "uint256"
        },
        {
          "indexed": false,
          "internalType": "uint64",
          "name": "revealDeadline",
          "type": "uint64"
        }
      ],
      "name": "DuelAccepted",
      "type": "event"
    },
    {
      "anonymous": false,
      "inputs": [
        {
          "indexed": true,
          "internalType": "uint256",
          "name": "duelId",
          "type": "uint256"
        },
        {
          "indexed": false,
          "internalType": "uint256",
          "name": "returnedStake",
          "type": "uint256"
        },
        {
          "indexed": false,
          "internalType": "uint256",
          "name": "bountyReturned",
          "type": "uint256"
        }
      ],
      "name": "DuelCanceled",
      "type": "event"
    },
    {
      "anonymous": false,
      "inputs": [
        {
          "indexed": true,
          "internalType": "uint256",
          "name": "duelId",
          "type": "uint256"
        },
        {
          "indexed": true,
          "internalType": "uint256",
          "name": "bountyId",
          "type": "uint256"
        },
        {
          "indexed": true,
          "internalType": "address",
          "name": "challenger",
          "type": "address"
        },
        {
          "indexed": false,
          "internalType": "address",
          "name": "target",
          "type": "address"
        },
        {
          "indexed": false,
          "internalType": "uint256",
          "name": "challengerStake",
          "type": "uint256"
        },
        {
          "indexed": false,
          "internalType": "uint64",
          "name": "commitDeadline",
          "type": "uint64"
        }
      ],
      "name": "DuelCreated",
      "type": "event"
    },
    {
      "anonymous": false,
      "inputs": [
        {
          "indexed": true,
          "internalType": "uint256",
          "name": "duelId",
          "type": "uint256"
        },
        {
          "indexed": true,
          "internalType": "address",
          "name": "winner",
          "type": "address"
        },
        {
          "indexed": false,
          "internalType": "uint256",
          "name": "payout",
          "type": "uint256"
        },
        {
          "indexed": false,
          "internalType": "uint256",
          "name": "bountyAmount",
          "type": "uint256"
        },
        {
          "indexed": false,
          "internalType": "uint256",
          "name": "totalStakes",
          "type": "uint256"
        }
      ],
      "name": "DuelResolved",
      "type": "event"
    },
    {
      "anonymous": false,
      "inputs": [
        {
          "indexed": true,
          "internalType": "uint256",
          "name": "duelId",
          "type": "uint256"
        },
        {
          "indexed": true,
          "internalType": "address",
          "name": "player",
          "type": "address"
        },
        {
          "indexed": false,
          "internalType": "bytes32",
          "name": "commitment",
          "type": "bytes32"
        }
      ],
      "name": "MoveCommitted",
      "type": "event"
    },
    {
      "anonymous": false,
      "inputs": [
        {
          "indexed": true,
          "internalType": "uint256",
          "name": "duelId",
          "type": "uint256"
        },
        {
          "indexed": true,
          "internalType": "address",
          "name": "player",
          "type": "address"
        },
        {
          "indexed": false,
          "internalType": "enum AutonomousBountyDuel.Move",
          "name": "move",
          "type": "uint8"
        }
      ],
      "name": "MoveRevealed",
      "type": "event"
    },
    {
      "anonymous": false,
      "inputs": [
        {
          "indexed": true,
          "internalType": "address",
          "name": "from",
          "type": "address"
        },
        {
          "indexed": true,
          "internalType": "address",
          "name": "to",
          "type": "address"
        },
        {
          "indexed": true,
          "internalType": "uint256",
          "name": "tokenId",
          "type": "uint256"
        }
      ],
      "name": "Transfer",
      "type": "event"
    },
    {
      "inputs": [],
      "name": "COMMIT_WINDOW",
      "outputs": [
        {
          "internalType": "uint64",
          "name": "",
          "type": "uint64"
        }
      ],
      "stateMutability": "view",
      "type": "function"
    },
    {
      "inputs": [],
      "name": "REVEAL_WINDOW",
      "outputs": [
        {
          "internalType": "uint64",
          "name": "",
          "type": "uint64"
        }
      ],
      "stateMutability": "view",
      "type": "function"
    },
    {
      "inputs": [
        {
          "internalType": "uint256",
          "name": "duelId",
          "type": "uint256"
        },
        {
          "internalType": "uint256",
          "name": "targetTokenId",
          "type": "uint256"
        },
        {
          "internalType": "bytes32",
          "name": "targetCommit",
          "type": "bytes32"
        }
      ],
      "name": "acceptChallenge",
      "outputs": [],
      "stateMutability": "payable",
      "type": "function"
    },
    {
      "inputs": [
        {
          "internalType": "address",
          "name": "to",
          "type": "address"
        },
        {
          "internalType": "uint256",
          "name": "tokenId",
          "type": "uint256"
        }
      ],
      "name": "approve",
      "outputs": [],
      "stateMutability": "nonpayable",
      "type": "function"
    },
    {
      "inputs": [
        {
          "internalType": "address",
          "name": "owner",
          "type": "address"
        }
      ],
      "name": "balanceOf",
      "outputs": [
        {
          "internalType": "uint256",
          "name": "",
          "type": "uint256"
        }
      ],
      "stateMutability": "view",
      "type": "function"
    },
    {
      "inputs": [
        {
          "internalType": "uint256",
          "name": "",
          "type": "uint256"
        }
      ],
      "name": "bounties",
      "outputs": [
        {
          "internalType": "address",
          "name": "poster",
          "type": "address"
        },
        {
          "internalType": "address",
          "name": "target",
          "type": "address"
        },
        {
          "internalType": "uint256",
          "name": "amount",
          "type": "uint256"
        },
        {
          "internalType": "bool",
          "name": "active",
          "type": "bool"
        }
      ],
      "stateMutability": "view",
      "type": "function"
    },
    {
      "inputs": [
        {
          "internalType": "uint256",
          "name": "",
          "type": "uint256"
        }
      ],
      "name": "characters",
      "outputs": [
        {
          "internalType": "uint64",
          "name": "hp",
          "type": "uint64"
        },
        {
          "internalType": "uint64",
          "name": "attack",
          "type": "uint64"
        },
        {
          "internalType": "uint64",
          "name": "defense",
          "type": "uint64"
        },
        {
          "internalType": "uint32",
          "name": "wins",
          "type": "uint32"
        },
        {
          "internalType": "uint32",
          "name": "losses",
          "type": "uint32"
        },
        {
          "internalType": "bool",
          "name": "initialized",
          "type": "bool"
        }
      ],
      "stateMutability": "view",
      "type": "function"
    },
    {
      "inputs": [
        {
          "internalType": "uint256",
          "name": "duelId",
          "type": "uint256"
        },
        {
          "internalType": "address",
          "name": "player",
          "type": "address"
        },
        {
          "internalType": "enum AutonomousBountyDuel.Move",
          "name": "move",
          "type": "uint8"
        },
        {
          "internalType": "bytes32",
          "name": "nonce",
          "type": "bytes32"
        }
      ],
      "name": "computeCommitment",
      "outputs": [
        {
          "internalType": "bytes32",
          "name": "",
          "type": "bytes32"
        }
      ],
      "stateMutability": "pure",
      "type": "function"
    },
    {
      "inputs": [
        {
          "internalType": "uint256",
          "name": "bountyId",
          "type": "uint256"
        },
        {
          "internalType": "uint256",
          "name": "challengerTokenId",
          "type": "uint256"
        },
        {
          "internalType": "bytes32",
          "name": "challengerCommit",
          "type": "bytes32"
        }
      ],
      "name": "createChallenge",
      "outputs": [
        {
          "internalType": "uint256",
          "name": "duelId",
          "type": "uint256"
        }
      ],
      "stateMutability": "payable",
      "type": "function"
    },
    {
      "inputs": [
        {
          "internalType": "uint256",
          "name": "",
          "type": "uint256"
        }
      ],
      "name": "duels",
      "outputs": [
        {
          "internalType": "uint256",
          "name": "bountyId",
          "type": "uint256"
        },
        {
          "internalType": "address",
          "name": "challenger",
          "type": "address"
        },
        {
          "internalType": "address",
          "name": "target",
          "type": "address"
        },
        {
          "internalType": "uint256",
          "name": "challengerTokenId",
          "type": "uint256"
        },
        {
          "internalType": "uint256",
          "name": "targetTokenId",
          "type": "uint256"
        },
        {
          "internalType": "uint256",
          "name": "challengerStake",
          "type": "uint256"
        },
        {
          "internalType": "uint256",
          "name": "targetStake",
          "type": "uint256"
        },
        {
          "internalType": "bytes32",
          "name": "challengerCommit",
          "type": "bytes32"
        },
        {
          "internalType": "bytes32",
          "name": "targetCommit",
          "type": "bytes32"
        },
        {
          "internalType": "bool",
          "name": "challengerRevealed",
          "type": "bool"
        },
        {
          "internalType": "bool",
          "name": "targetRevealed",
          "type": "bool"
        },
        {
          "internalType": "enum AutonomousBountyDuel.Move",
          "name": "challengerMove",
          "type": "uint8"
        },
        {
          "internalType": "enum AutonomousBountyDuel.Move",
          "name": "targetMove",
          "type": "uint8"
        },
        {
          "internalType": "uint64",
          "name": "commitDeadline",
          "type": "uint64"
        },
        {
          "internalType": "uint64",
          "name": "revealDeadline",
          "type": "uint64"
        },
        {
          "internalType": "enum AutonomousBountyDuel.DuelState",
          "name": "state",
          "type": "uint8"
        },
        {
          "internalType": "address",
          "name": "winner",
          "type": "address"
        }
      ],
      "stateMutability": "view",
      "type": "function"
    },
    {
      "inputs": [
        {
          "internalType": "uint256",
          "name": "tokenId",
          "type": "uint256"
        }
      ],
      "name": "getApproved",
      "outputs": [
        {
          "internalType": "address",
          "name": "",
          "type": "address"
        }
      ],
      "stateMutability": "view",
      "type": "function"
    },
    {
      "inputs": [
        {
          "internalType": "uint256",
          "name": "bountyId",
          "type": "uint256"
        }
      ],
      "name": "getBounty",
      "outputs": [
        {
          "components": [
            {
              "internalType": "address",
              "name": "poster",
              "type": "address"
            },
            {
              "internalType": "address",
              "name": "target",
              "type": "address"
            },
            {
              "internalType": "uint256",
              "name": "amount",
              "type": "uint256"
            },
            {
              "internalType": "bool",
              "name": "active",
              "type": "bool"
            }
          ],
          "internalType": "struct AutonomousBountyDuel.Bounty",
          "name": "",
          "type": "tuple"
        }
      ],
      "stateMutability": "view",
      "type": "function"
    },
    {
      "inputs": [
        {
          "internalType": "uint256",
          "name": "tokenId",
          "type": "uint256"
        }
      ],
      "name": "getCharacter",
      "outputs": [
        {
          "components": [
            {
              "internalType": "uint64",
              "name": "hp",
              "type": "uint64"
            },
            {
              "internalType": "uint64",
              "name": "attack",
              "type": "uint64"
            },
            {
              "internalType": "uint64",
              "name": "defense",
              "type": "uint64"
            },
            {
              "internalType": "uint32",
              "name": "wins",
              "type": "uint32"
            },
            {
              "internalType": "uint32",
              "name": "losses",
              "type": "uint32"
            },
            {
              "internalType": "bool",
              "name": "initialized",
              "type": "bool"
            }
          ],
          "internalType": "struct AutonomousBountyDuel.Character",
          "name": "",
          "type": "tuple"
        }
      ],
      "stateMutability": "view",
      "type": "function"
    },
    {
      "inputs": [
        {
          "internalType": "uint256",
          "name": "duelId",
          "type": "uint256"
        }
      ],
      "name": "getDuel",
      "outputs": [
        {
          "components": [
            {
              "internalType": "uint256",
              "name": "bountyId",
              "type": "uint256"
            },
            {
              "internalType": "address",
              "name": "challenger",
              "type": "address"
            },
            {
              "internalType": "address",
              "name": "target",
              "type": "address"
            },
            {
              "internalType": "uint256",
              "name": "challengerTokenId",
              "type": "uint256"
            },
            {
              "internalType": "uint256",
              "name": "targetTokenId",
              "type": "uint256"
            },
            {
              "internalType": "uint256",
              "name": "challengerStake",
              "type": "uint256"
            },
            {
              "internalType": "uint256",
              "name": "targetStake",
              "type": "uint256"
            },
            {
              "internalType": "bytes32",
              "name": "challengerCommit",
              "type": "bytes32"
            },
            {
              "internalType": "bytes32",
              "name": "targetCommit",
              "type": "bytes32"
            },
            {
              "internalType": "bool",
              "name": "challengerRevealed",
              "type": "bool"
            },
            {
              "internalType": "bool",
              "name": "targetRevealed",
              "type": "bool"
            },
            {
              "internalType": "enum AutonomousBountyDuel.Move",
              "name": "challengerMove",
              "type": "uint8"
            },
            {
              "internalType": "enum AutonomousBountyDuel.Move",
              "name": "targetMove",
              "type": "uint8"
            },
            {
              "internalType": "uint64",
              "name": "commitDeadline",
              "type": "uint64"
            },
            {
              "internalType": "uint64",
              "name": "revealDeadline",
              "type": "uint64"
            },
            {
              "internalType": "enum AutonomousBountyDuel.DuelState",
              "name": "state",
              "type": "uint8"
            },
            {
              "internalType": "address",
              "name": "winner",
              "type": "address"
            }
          ],
          "internalType": "struct AutonomousBountyDuel.Duel",
          "name": "",
          "type": "tuple"
        }
      ],
      "stateMutability": "view",
      "type": "function"
    },
    {
      "inputs": [
        {
          "internalType": "address",
          "name": "owner",
          "type": "address"
        },
        {
          "internalType": "address",
          "name": "operator",
          "type": "address"
        }
      ],
      "name": "isApprovedForAll",
      "outputs": [
        {
          "internalType": "bool",
          "name": "",
          "type": "bool"
        }
      ],
      "stateMutability": "view",
      "type": "function"
    },
    {
      "inputs": [],
      "name": "mintCharacter",
      "outputs": [
        {
          "internalType": "uint256",
          "name": "tokenId",
          "type": "uint256"
        }
      ],
      "stateMutability": "nonpayable",
      "type": "function"
    },
    {
      "inputs": [],
      "name": "name",
      "outputs": [
        {
          "internalType": "string",
          "name": "",
          "type": "string"
        }
      ],
      "stateMutability": "view",
      "type": "function"
    },
    {
      "inputs": [],
      "name": "nextBountyId",
      "outputs": [
        {
          "internalType": "uint256",
          "name": "",
          "type": "uint256"
        }
      ],
      "stateMutability": "view",
      "type": "function"
    },
    {
      "inputs": [],
      "name": "nextDuelId",
      "outputs": [
        {
          "internalType": "uint256",
          "name": "",
          "type": "uint256"
        }
      ],
      "stateMutability": "view",
      "type": "function"
    },
    {
      "inputs": [],
      "name": "nextTokenId",
      "outputs": [
        {
          "internalType": "uint256",
          "name": "",
          "type": "uint256"
        }
      ],
      "stateMutability": "view",
      "type": "function"
    },
    {
      "inputs": [
        {
          "internalType": "uint256",
          "name": "tokenId",
          "type": "uint256"
        }
      ],
      "name": "ownerOf",
      "outputs": [
        {
          "internalType": "address",
          "name": "",
          "type": "address"
        }
      ],
      "stateMutability": "view",
      "type": "function"
    },
    {
      "inputs": [
        {
          "internalType": "address",
          "name": "target",
          "type": "address"
        }
      ],
      "name": "postBounty",
      "outputs": [
        {
          "internalType": "uint256",
          "name": "bountyId",
          "type": "uint256"
        }
      ],
      "stateMutability": "payable",
      "type": "function"
    },
    {
      "inputs": [
        {
          "internalType": "uint256",
          "name": "duelId",
          "type": "uint256"
        }
      ],
      "name": "resolveDuel",
      "outputs": [],
      "stateMutability": "nonpayable",
      "type": "function"
    },
    {
      "inputs": [
        {
          "internalType": "uint256",
          "name": "duelId",
          "type": "uint256"
        },
        {
          "internalType": "enum AutonomousBountyDuel.Move",
          "name": "move",
          "type": "uint8"
        },
        {
          "internalType": "bytes32",
          "name": "nonce",
          "type": "bytes32"
        }
      ],
      "name": "revealMove",
      "outputs": [],
      "stateMutability": "nonpayable",
      "type": "function"
    },
    {
      "inputs": [
        {
          "internalType": "address",
          "name": "from",
          "type": "address"
        },
        {
          "internalType": "address",
          "name": "to",
          "type": "address"
        },
        {
          "internalType": "uint256",
          "name": "tokenId",
          "type": "uint256"
        }
      ],
      "name": "safeTransferFrom",
      "outputs": [],
      "stateMutability": "nonpayable",
      "type": "function"
    },
    {
      "inputs": [
        {
          "internalType": "address",
          "name": "from",
          "type": "address"
        },
        {
          "internalType": "address",
          "name": "to",
          "type": "address"
        },
        {
          "internalType": "uint256",
          "name": "tokenId",
          "type": "uint256"
        },
        {
          "internalType": "bytes",
          "name": "data",
          "type": "bytes"
        }
      ],
      "name": "safeTransferFrom",
      "outputs": [],
      "stateMutability": "nonpayable",
      "type": "function"
    },
    {
      "inputs": [
        {
          "internalType": "address",
          "name": "operator",
          "type": "address"
        },
        {
          "internalType": "bool",
          "name": "approved",
          "type": "bool"
        }
      ],
      "name": "setApprovalForAll",
      "outputs": [],
      "stateMutability": "nonpayable",
      "type": "function"
    },
    {
      "inputs": [
        {
          "internalType": "bytes4",
          "name": "interfaceId",
          "type": "bytes4"
        }
      ],
      "name": "supportsInterface",
      "outputs": [
        {
          "internalType": "bool",
          "name": "",
          "type": "bool"
        }
      ],
      "stateMutability": "view",
      "type": "function"
    },
    {
      "inputs": [],
      "name": "symbol",
      "outputs": [
        {
          "internalType": "string",
          "name": "",
          "type": "string"
        }
      ],
      "stateMutability": "view",
      "type": "function"
    },
    {
      "inputs": [
        {
          "internalType": "uint256",
          "name": "tokenId",
          "type": "uint256"
        }
      ],
      "name": "tokenURI",
      "outputs": [
        {
          "internalType": "string",
          "name": "",
          "type": "string"
        }
      ],
      "stateMutability": "view",
      "type": "function"
    },
    {
      "inputs": [
        {
          "internalType": "address",
          "name": "from",
          "type": "address"
        },
        {
          "internalType": "address",
          "name": "to",
          "type": "address"
        },
        {
          "internalType": "uint256",
          "name": "tokenId",
          "type": "uint256"
        }
      ],
      "name": "transferFrom",
      "outputs": [],
      "stateMutability": "nonpayable",
      "type": "function"
    }
  ],
  "bytecode": "0x60806040523461033057604080519081016001600160401b03811182821017610246576040908152601482527f4d6f6e6164204475656c20436861726163746572000000000000000000000000602083015280519081016001600160401b038111828210176102465760405260038152624d444360e81b602082015281516001600160401b038111610246575f54600181811c91168015610326575b602082101461022857601f81116102c4575b50602092601f821160011461026557928192935f9261025a575b50508160011b915f199060031b1c1916175f555b80516001600160401b03811161024657600154600181811c9116801561023c575b602082101461022857601f81116101c5575b50602091601f8211600114610165579181925f9261015a575b50508160011b915f199060031b1c1916176001555b600160065560016007556001600855604051612db390816103358239f35b015190505f80610127565b601f1982169260015f52805f20915f5b8581106101ad57508360019510610195575b505050811b0160015561013c565b01515f1960f88460031b161c191690555f8080610187565b91926020600181928685015181550194019201610175565b60015f527fb10e2d527612073b26eecdfd717e6a320cf44b4afac2b0732d9fcbe2b7fa0cf6601f830160051c8101916020841061021e575b601f0160051c01905b818110610213575061010e565b5f8155600101610206565b90915081906101fd565b634e487b7160e01b5f52602260045260245ffd5b90607f16906100fc565b634e487b7160e01b5f52604160045260245ffd5b015190505f806100c7565b601f198216935f8052805f20915f5b8681106102ac5750836001959610610294575b505050811b015f556100db565b01515f1960f88460031b161c191690555f8080610287565b91926020600181928685015181550194019201610274565b5f80527f290decd9548b62a8d60345a988386fc84ba6bc95484008f6362f93160ef3e563601f830160051c8101916020841061031c575b601f0160051c01905b81811061031157506100ad565b5f8155600101610304565b90915081906102fb565b90607f169061009b565b5f80fdfe6080806040526004361015610012575f80fd5b5f905f3560e01c90816301ffc9a714611b265750806306fdde0314611a6e578063081812fc14611a32578063095ea7b31461194857806317e931cf1461063757806323b872dd1461193157806342842e0e146119025780634810bc5914611884578063549ec61414611867578063565e614f146115c9578063626ccff8146114665780636352211e1461143657806370a08231146113e557806372722f67146111c457806375794a3c146111a7578063859a62d01461107e57806395d89b4114610f76578063a22cb46514610eb9578063b6c3bc5c14610c7c578063b88d4fde14610be7578063c87b56dd14610b8e578063cdd69a1214610b6e578063dabb053114610a8b578063dc2f874414610a29578063e8d0f33f1461063c578063e97f6a6814610637578063e985e9c5146105df578063ee8c4bbf14610534578063f9e067e5146104a0578063faf039f4146101935763fd14fad414610173575f80fd5b346101905780600319360112610190576020600754604051908152f35b80fd5b50346101905780600319360112610190576006546101b081611eb4565b6006556020916040516101c38482611cd1565b818152331561048c575f8381526002855260409020546001600160a01b0316801515908161045b575b335f8181526003885260408082208054600101905587825260028952812080546001600160a01b0319168317905586919083907fddf252ad1be2c89b69c2b068fc378daa952ba7f163c4a11628f55a4df523b3ef9080a4506104475783333b61035f575b50506040519061025f82611cb6565b60648252600c84830190815260086040808501918252606085018481526080808701868152600160a089018181528a895260098c52978590209851965195519351915160c09290921b63ffffffff60c01b169390921b67ffffffffffffffff60801b166001600160401b039096169490931b67ffffffffffffffff60401b169390931793909317929092176001600160e01b031960e09390931b9290921691909117835590519101805460ff191691151560ff169190911790558060405160648152838101600c90526040810160089052339060607fac30aeeacea720b057ea7169c4d03966466f8d83ba5093d76012f6ddd84155be91a3604051908152f35b6103979160405180938192630a85bd0160e11b83523360048401525f6024840152876044840152608060648401526084830190611b91565b03815f335af15f9181610403575b506103d257836103b361275b565b80519190826103cf57633250574960e11b5f523360045260245ffd5b01fd5b6001600160e01b03191663757a42ff60e11b016103f0575f83610250565b633250574960e11b5f523360045260245ffd5b9091508481813d8311610440575b61041b8183611cd1565b8101031261043c57516001600160e01b03198116810361043c57905f6103a5565b5f80fd5b503d610411565b6339e3563760e11b82526004829052602482fd5b5f8581526004602052604080822080546001600160a01b031916905582825260038852902080545f190190556101ec565b633250574960e11b82526004829052602482fd5b5034610190576080366003190112610190576104ba611bcb565b90604435906003821015610190575060408051600435602082810191825260609590951b6bffffffffffffffffffffffff19169282019290925260f89290921b6001600160f81b031916605483015260643560558301529061052981607581015b03601f198101835282611cd1565b519020604051908152f35b5034610190576020366003190112610190576040816080926060835161055981611c9b565b828152826020820152828582015201526004358152600a6020522060405161058081611c9b565b81546001600160a01b039081168083526001840154821660208085019182526002860154604080870191825260039097015460ff1615156060968701908152875194855292519094169083015291519381019390935251151590820152f35b50346101905760403660031901126101905760406105fb611bb5565b91610604611bcb565b9260018060a01b031681526005602052209060018060a01b03165f52602052602060ff60405f2054166040519015158152f35b611be1565b5061064636611c51565b918084929452600a6020526040822061066560ff6003830154166126e9565b61068161067186612727565b6001600160a01b03163314611f96565b60018101546001600160a01b031633146109e4576106a0841515611fd4565b34156109ae57600854936106b385611eb4565b6008556001600160401b036106c74261200f565b169360018060a01b0360018401541696604051976106e489611c6b565b8589523360208a0152604089015260608801528060808801523460a08801528060c08801528160e08801528061010088015280610120880152806101408801528061016088015280610180880152846101a0880152806101c088015260016101e0880152610200870196818852868252600b60205260408220918151835560018060a01b03602083015116600184019060018060a01b03166001600160601b0360a01b82541617905560018060a01b03604083015116600284019060018060a01b03166001600160601b0360a01b825416179055606082015160038401556080820151600484015560a0820151600584015560c0820151600684015560e08201516007840155610100820151600884015560098301916108176101208201511515849060ff801983541691151516179055565b610140810151835461ff00191690151560081b61ff0016178355610160810151600381101561099a5761084a9084611f75565b610180810151600381101561099a57906108676101e09285611f52565b6101a081015184546101c083015173ffffffffffffffffffffffffffffffff000000001990911660209290921b6bffffffffffffffff00000000169190911760609190911b67ffffffffffffffff60601b1617845501519060058210156109865750815460ff60a01b191660a09190911b60ff60a01b161790559551600a9690960180546001600160a01b0319166001600160a01b039790971696909617909555604051948552602094339085907f554a5d15a082f1f9f6e4aa87ae9c371a1374441e761d7f795ed28d4588d6b008908890a36001808060a01b03910154169160405192835234858401526040830152827f087f379deed47833600dfdf09969f5ab148242f24ec673c9880eb1e757e3bee560603394a4604051908152f35b634e487b7160e01b81526021600452602490fd5b634e487b7160e01b83526021600452602483fd5b60405162461bcd60e51b815260206004820152600e60248201526d1cdd185ad9481c995c5d5a5c995960921b6044820152606490fd5b60405162461bcd60e51b815260206004820152601c60248201527f7461726765742063616e6e6f742073656c662d6368616c6c656e6765000000006044820152606490fd5b50346101905760203660031901126101905760406080916004358152600a6020522060018060a01b038154169060018060a01b036001820154169060ff6003600283015492015416916040519384526020840152604083015215156060820152f35b50346101905760203660031901126101905760408160c09260a08351610ab081611cb6565b828152826020820152828582015282606082015282608082015201526004358152600960205220604051610ae381611cb6565b63ffffffff8254816001600160401b038216948585526001600160401b0360208601818560401c168152816040880191818760801c16835260a060ff600160608c0197898f8c901c16895260808d019a60e01c8b5201541699019815158952604051998a525116602089015251166040870152511660608501525116608083015251151560a0820152f35b503461019057602036600319011261019057610b8b60043561202b565b80f35b3461043c57602036600319011261043c57610baa600435612727565b505f604051610bba602082611cd1565b52610be3604051610bcc602082611cd1565b5f8152604051918291602083526020830190611b91565b0390f35b3461043c57608036600319011261043c57610c00611bb5565b610c08611bcb565b90604435606435926001600160401b03841161043c573660238501121561043c57836004013592610c3884611cf2565b93610c466040519586611cd1565b808552366024828801011161043c576020815f926024610c7a99018389013786010152610c74838383611d0d565b3361278a565b005b610c8536611c51565b825f52600b60205260405f20906009820191825460ff8160a01c166005811015610ea557600103610e705760028201546001600160a01b03163303610e3d5760201c6001600160401b03164211610e0757610cf2336001600160a01b03610ceb87612727565b1614611f96565b610cfd821515611fd4565b60058101543403610dd1576008816001600160401b03956004859401553460068201550155610d5683610d2f4261200f565b845467ffffffffffffffff60601b1916911660601b67ffffffffffffffff60601b16178355565b815460ff60a01b1916600160a11b178255604051908152339084907f554a5d15a082f1f9f6e4aa87ae9c371a1374441e761d7f795ed28d4588d6b00890602090a35460601c16906040519134835260208301527f9c25b1480cdfd58968dd3a45b8205cf541d6b81654a19127d21907012af04dc660403393a3005b60405162461bcd60e51b815260206004820152600e60248201526d0e6e8c2d6ca40dad2e6dac2e8c6d60931b6044820152606490fd5b60405162461bcd60e51b815260206004820152600e60248201526d18dbdb5b5a5d08195e1c1a5c995960921b6044820152606490fd5b60405162461bcd60e51b815260206004820152600b60248201526a1bdb9b1e481d185c99d95d60aa1b6044820152606490fd5b60405162461bcd60e51b815260206004820152600d60248201526c696e76616c696420737461746560981b6044820152606490fd5b634e487b7160e01b5f52602160045260245ffd5b3461043c57604036600319011261043c57610ed2611bb5565b602435908115159081830361043c573315610f63576001600160a01b0316918215610f5057610f2290335f52600560205260405f20845f5260205260405f209060ff801983541691151516179055565b6040519081527f17307eab39ab6107e8899845ad3d59bd9653f200f220920489ca2b5937696c3160203392a3005b82630b61174360e31b5f5260045260245ffd5b63a9fbf51f60e01b5f525f60045260245ffd5b3461043c575f36600319011261043c576040515f6001548060011c90600181168015611074575b6020831081146110605782855290811561103c5750600114610fde575b610be383610fca81850382611cd1565b604051918291602083526020830190611b91565b91905060015f527fb10e2d527612073b26eecdfd717e6a320cf44b4afac2b0732d9fcbe2b7fa0cf6915f905b80821061102257509091508101602001610fca610fba565b91926001816020925483858801015201910190929161100a565b60ff191660208086019190915291151560051b84019091019150610fca9050610fba565b634e487b7160e01b5f52602260045260245ffd5b91607f1691610f9d565b3461043c57602036600319011261043c576004355f52600b60205261022060405f2080549061119f60018060a01b036001830154169160018060a01b03600282015416600382015460048301546005840154600685015491600786015493600887015495600988015497600a60018060a01b0391015416996040519b8c5260208c015260408b015260608a0152608089015260a088015260c087015260e086015261010085015260ff8116151561012085015260ff8160081c161515610140850152611154610160850160ff8360101c16611c37565b611168610180850160ff8360181c16611c37565b6001600160401b038160201c166101a08501526001600160401b038160601c166101c085015260ff6101e085019160a01c16611c44565b610200820152f35b3461043c575f36600319011261043c576020600654604051908152f35b3461043c57606036600319011261043c57602435600435600382101561043c57805f52600b60205260405f206009810180549060ff8260a01c166005811015610ea5576002036113ae576001600160401b038260601c1642116113785760408051602081018681523360601b6bffffffffffffffffffffffff19169282019290925260f887901b6001600160f81b0319166054820152604435605582015286939190611273816075810161051b565b5190209060018060a01b0360018601541633145f146112f257506112bd936112b160019260078554936112a960ff861615611ed6565b015414611f15565b60ff1916178155611f75565b6112ca6040518093611c37565b7fdd17665bf97c2a169e97f4f62f36023bf40807eb797a922864394a910d5c37c860203393a3005b600285015490949350336001600160a01b039091160361133c578361132a61010092600889966112a960ff6113379a841c1615611ed6565b61ff001916178155611f52565b6112bd565b60405162461bcd60e51b81526020600482015260146024820152731b9bdd08191d595b081c185c9d1a58da5c185b9d60621b6044820152606490fd5b60405162461bcd60e51b815260206004820152600e60248201526d1c995d99585b08195e1c1a5c995960921b6044820152606490fd5b60405162461bcd60e51b815260206004820152600f60248201526e6475656c206e6f742061637469766560881b6044820152606490fd5b3461043c57602036600319011261043c576001600160a01b03611406611bb5565b168015611423575f526003602052602060405f2054604051908152f35b6322718ad960e21b5f525f60045260245ffd5b3461043c57602036600319011261043c576020611454600435612727565b6040516001600160a01b039091168152f35b602036600319011261043c576001600160a01b03611482611bb5565b16801561159357341561155c5760075460209161149e82611eb4565b6007556115286040516114b081611c9b565b3381528481018381523460408084019182526001606085018181525f898152600a8b5292909220945185546001600160a01b039182166001600160a01b031991821617875594519186018054929091169190941617909255516002830155516003909101805460ff191691151560ff16919091179055565b604051348152827fac926dd55d652f00826eddedcce502a736f4d79f8ee2f1835335a9fac96d3e7f853393a4604051908152f35b60405162461bcd60e51b815260206004820152600f60248201526e189bdd5b9d1e481c995c5d5a5c9959608a1b6044820152606490fd5b60405162461bcd60e51b815260206004820152600e60248201526d1a5b9d985b1a59081d185c99d95d60921b6044820152606490fd5b3461043c57602036600319011261043c575f6102006040516115ea81611c6b565b8281528260208201528260408201528260608201528260808201528260a08201528260c08201528260e08201528261010082015282610120820152826101408201528261016082015282610180820152826101a0820152826101c0820152826101e082015201526004355f52600b60205260405f2060405161166b81611c6b565b8154815260018201546001600160a01b03908116602083015260028301541660408201526003820154606082015260048201546080820152600582015460a0820152600682015460c0820152600782015460e0820152600880830154610100830152600983015460ff81811615156101208501529181901c82161515610140840152611701601082901c83166101608501611ea8565b611714828260181c166101808501611ea8565b6001600160401b038160201c166101a08401526001600160401b038160601c166101c084015260a01c16916005831015610ea557610220926101e0830152600a60018060a01b0391015416610200820152604051908051825260018060a01b03602082015116602083015260018060a01b036040820151166040830152606081015160608301526080810151608083015260a081015160a083015260c081015160c083015260e081015160e0830152610100810151610100830152610120810151151561012083015261014081015115156101408301526117ff610160820151610160840190611c37565b611813610180820151610180840190611c37565b6001600160401b036101a0820151166101a08301526001600160401b036101c0820151166101c08301526118516101e08201516101e0840190611c44565b610200908101516001600160a01b031690820152f35b3461043c575f36600319011261043c576020600854604051908152f35b3461043c57602036600319011261043c576004355f52600960205260c060405f2060ff6001825492015416604051916001600160401b03811683526001600160401b038160401c1660208401526001600160401b038160801c16604084015263ffffffff81851c16606084015260e01c6080830152151560a0820152f35b3461043c57610c7a61191336611bfd565b9060405192611923602085611cd1565b5f8452610c74838383611d0d565b3461043c57610c7a61194236611bfd565b91611d0d565b3461043c57604036600319011261043c57611961611bb5565b60243561196d81612727565b33151580611a1f575b806119f2575b6119df5781906001600160a01b0384811691167f8c5be1e5ebec7d5bd14f71427d1e84f3dd0314c0f7b2291e5b200ac8c7c3b9255f80a45f90815260046020526040902080546001600160a01b0319166001600160a01b03909216919091179055005b63a9fbf51f60e01b5f523360045260245ffd5b506001600160a01b0381165f90815260056020908152604080832033845290915290205460ff161561197c565b506001600160a01b038116331415611976565b3461043c57602036600319011261043c57600435611a4f81612727565b505f526004602052602060018060a01b0360405f205416604051908152f35b3461043c575f36600319011261043c576040515f80548060011c90600181168015611b1c575b6020831081146110605782855290811561103c5750600114611ac057610be383610fca81850382611cd1565b5f8080527f290decd9548b62a8d60345a988386fc84ba6bc95484008f6362f93160ef3e563939250905b808210611b0257509091508101602001610fca610fba565b919260018160209254838588010152019101909291611aea565b91607f1691611a94565b3461043c57602036600319011261043c576004359063ffffffff60e01b821680920361043c576020916380ac58cd60e01b8114908115611b80575b8115611b6f575b5015158152f35b6301ffc9a760e01b14905083611b68565b635b5e139f60e01b81149150611b61565b805180835260209291819084018484015e5f828201840152601f01601f1916010190565b600435906001600160a01b038216820361043c57565b602435906001600160a01b038216820361043c57565b3461043c575f36600319011261043c5760206040516104b08152f35b606090600319011261043c576004356001600160a01b038116810361043c57906024356001600160a01b038116810361043c579060443590565b906003821015610ea55752565b906005821015610ea55752565b606090600319011261043c57600435906024359060443590565b61022081019081106001600160401b03821117611c8757604052565b634e487b7160e01b5f52604160045260245ffd5b608081019081106001600160401b03821117611c8757604052565b60c081019081106001600160401b03821117611c8757604052565b90601f801991011681019081106001600160401b03821117611c8757604052565b6001600160401b038111611c8757601f01601f191660200190565b6001600160a01b0390911691908215611e95575f828152600260205260409020546001600160a01b031692829033151580611e00575b5084611dcd575b805f52600360205260405f2060018154019055815f52600260205260405f20816001600160601b0360a01b825416179055847fddf252ad1be2c89b69c2b068fc378daa952ba7f163c4a11628f55a4df523b3ef5f80a46001600160a01b0316808303611db557505050565b6364283d7b60e01b5f5260045260245260445260645ffd5b5f82815260046020526040902080546001600160a01b0319169055845f52600360205260405f205f198154019055611d4a565b90915080611e44575b15611e165782905f611d43565b8284611e2e57637e27328960e01b5f5260045260245ffd5b63177e802f60e01b5f523360045260245260445ffd5b503384148015611e73575b80611e0957505f838152600460205260409020546001600160a01b03163314611e09565b505f84815260056020908152604080832033845290915290205460ff16611e4f565b633250574960e11b5f525f60045260245ffd5b6003821015610ea55752565b5f198114611ec25760010190565b634e487b7160e01b5f52601160045260245ffd5b15611edd57565b60405162461bcd60e51b815260206004820152601060248201526f185b1c9958591e481c995d99585b195960821b6044820152606490fd5b15611f1c57565b60405162461bcd60e51b815260206004820152600e60248201526d1a5b9d985b1a59081c995d99585b60921b6044820152606490fd5b906003811015610ea55763ff00000082549160181b169063ff0000001916179055565b906003811015610ea55762ff000082549160101b169062ff00001916179055565b15611f9d57565b60405162461bcd60e51b815260206004820152600f60248201526e3737ba103a37b5b2b71037bbb732b960891b6044820152606490fd5b15611fdb57565b60405162461bcd60e51b815260206004820152600c60248201526b195b5c1d1e4818dbdb5b5a5d60a21b6044820152606490fd5b906104b08201809211611ec257565b91908201809211611ec257565b805f52600b60205260405f206009810190815460ff8160a01c16600581101580610ea5576002821480156126dd575b156126a457610ea5576001146125a8575090805460ff811680809161259b575b15612550575b8080612543575b1561241657505061209882846128a6565b925b82545f52600a60205260405f2060038101926120b960ff8554166126e9565b805460ff60a01b1916600360a01b179055600a840180546001600160a01b0319166001600160a01b03878116918217909255600186015490911680821491908215612410575060028601546001600160a01b0316955b8215612405576003810154925b156123fa576004810154975b835f52600960205260405f20895f526009602052600260405f209661217961215963ffffffff855460c01c16612d29565b845463ffffffff60c01b191660c09190911b63ffffffff60c01b16178455565b6001600160401b03835460401c1667fffffffffffffffe81106123bb575b506121c86121a8895460e01c612d29565b89546001600160e01b031660e09190911b6001600160e01b031916178955565b6001600160401b03885460801c1667fffffffffffffffe8110612381575b50019788549260058501948554906006019081546122039161201e565b9561220e878761201e565b9b8c9460ff1981541690555f90555f90555f90555a5f809381938293f161223361275b565b501561234c5783612347977fdf43b094ba4a5aee132a3f0d4777442475fef56a492305b7cac37ac14ab7867160607f6de74d2b1166d50651508fb07ed38b5142fbb778a52e9d4d8202dbd5f493c7219b8c976122e99760405192835260208301526040820152a354604080516001600160401b03808416825283831c81166020830152608084811c9091169282019290925260c083901c63ffffffff16606082015260e09290921c9082015290819060a0820190565b0390a354604080516001600160401b03808416825283831c81166020830152608084811c9091169282019290925260c083901c63ffffffff16606082015260e09290921c908201526001600160a01b039093169290819060a0820190565b0390a3565b60405162461bcd60e51b815260206004820152600d60248201526c1c185e5bdd5d0819985a5b1959609a1b6044820152606490fd5b61238d6123b591612d41565b895467ffffffffffffffff60801b191660809190911b67ffffffffffffffff60801b16178955565b5f6121e6565b6123c76123f491612d41565b84546fffffffffffffffff0000000000000000191660409190911b67ffffffffffffffff60401b16178455565b5f612197565b600381015497612128565b60048101549261211c565b9561210f565b8080612535575b1561243857505060018201546001600160a01b03169261209a565b159081612527575b501561245a5760028201546001600160a01b03169261209a565b81545f52600a60205260405f2090600160a21b60ff60a01b198254161790555f6005830192816124926006865493019283549061201e565b9455555f8080808560018060a01b038654165af16124ae61275b565b50156124ea577fbf0cd88aa8492edfec7978a474f6f3d2e3de0783e62c028fa89754c5bfd643fb916002604092015482519182526020820152a2565b60405162461bcd60e51b81526020600482015260156024820152741cdb185cda081d1c985b9cd9995c8819985a5b1959605a1b6044820152606490fd5b60ff915060081c165f612440565b5060ff8260081c161561241d565b5060ff8260081c16612087565b6001600160401b038260601c1642116120805760405162461bcd60e51b815260206004820152601060248201526f6177616974696e672072657665616c7360801b6044820152606490fd5b5060ff8260081c1661207a565b60201c6001600160401b031642111561266657815460ff60a01b1916600160a21b179091556005810180545f9182905560019092015481908190819085906001600160a01b03165af16125f961275b565b50156126315760407fbf0cd88aa8492edfec7978a474f6f3d2e3de0783e62c028fa89754c5bfd643fb9181519081525f6020820152a2565b60405162461bcd60e51b815260206004820152600d60248201526c1c99599d5b990819985a5b1959609a1b6044820152606490fd5b60405162461bcd60e51b81526020600482015260166024820152757374696c6c20696e20636f6d6d69742077696e646f7760501b6044820152606490fd5b60405162461bcd60e51b8152602060048201526011602482015270185b1c9958591e48199a5b985b1a5e9959607a1b6044820152606490fd5b50505f6001821461205a565b156126f057565b60405162461bcd60e51b815260206004820152600f60248201526e626f756e747920696e61637469766560881b6044820152606490fd5b5f818152600260205260409020546001600160a01b0316908115612749575090565b637e27328960e01b5f5260045260245ffd5b3d15612785573d9061276c82611cf2565b9161277a6040519384611cd1565b82523d5f602084013e565b606090565b823b612798575b5050505050565b604051630a85bd0160e11b81526001600160a01b0391821660048201529181166024830152604482019390935260806064820152911691602090829081906127e4906084830190611b91565b03815f865af15f9181612854575b50612820575061280061275b565b8051908161281b5782633250574960e11b5f5260045260245ffd5b602001fd5b6001600160e01b03191663757a42ff60e11b0161284257505f80808080612791565b633250574960e11b5f5260045260245ffd5b9091506020813d602011612891575b8161287060209383611cd1565b8101031261043c57516001600160e01b03198116810361043c57905f6127f2565b3d9150612863565b91908203918211611ec257565b60038201545f90815260096020526040808220600485015483529120600182015460ff1680612d1b575b15612ce257600984015460ff808260101c169160181c169254926001600160401b038460401c169254906001600160401b038260401c169260038110159485610ea55781158080612cd1575b15612adf5750608184901c677fffffffffffffff1680821115612ad75761294291612899565b93608187901c677fffffffffffffff1680821115612acf5761296391612899565b945b610ea557600214612aab575b6003811015610ea557600214612a74575b6001600160401b031681811115612a63576001600160401b03916129a591612899565b925b169080821115612a5a576129ba91612899565b905b808211612a475711612a3657600160028184015493015491604051602081019182526001600160601b03198560601b1660408201526001600160601b03198460601b16605482015260488152612a13606882611cd1565b51902016612a2857506001600160a01b031690565b6001600160a01b0316919050565b50600201546001600160a01b031690565b505050600101546001600160a01b031690565b50505f906129bc565b50506001600160401b035f926129a7565b906008811115612a9c576007198101908111611ec2576001600160401b03905b919050612982565b506001600160401b035f612a94565b926008811115612ac8576007198101908111611ec2575b92612971565b505f612ac2565b50505f612963565b50505f612942565b90919495505f958180612cbe575b15612b2c5750506001600160401b03612b0a818560801c16612d5f565b1680821115612b2457612b1c91612899565b925f94612965565b50505f612b1c565b5f96509080612cab575b15612b67575060068101809111611ec257608183901c677fffffffffffffff1680821115612b2457612b1c91612899565b5f9550939050600181148080612c9a575b15612bb657505f936001600160401b03612b96818960801c16612d5f565b1680821115612bae57612ba891612899565b94612965565b50505f612ba8565b5f955090938180612c87575b15612bd25750505f925f94612965565b5f95509080612c74575b15612beb57505f925f94612965565b5f945092600281148080612c63575b15612c2d57505f9360068101809111611ec257608187901c677fffffffffffffff1680821115612bae57612ba891612899565b945092505f9380612c50575b15612c47575f925f94612965565b5f925f94612965565b506003811015610ea55760018114612c39565b506003831015610ea5578215612bfa565b506003821015610ea55760028214612bdc565b506003831015610ea55760018314612bc2565b506003831015610ea5578215612b78565b506003831015610ea55760028314612b36565b506003841015610ea55760018414612aed565b506003841015610ea557831561291c565b60405162461bcd60e51b8152602060048201526011602482015270636861726163746572206d697373696e6760781b6044820152606490fd5b5060ff6001820154166128d0565b63ffffffff60019116019063ffffffff8211611ec257565b6001600160401b036001911601906001600160401b038211611ec257565b6001600160401b036006911601906001600160401b038211611ec25756fea26469706673582212204cb7dd7617ab4f70d4e4342e315678bcd85fbbc2a250dc965064afb15c619b2f64736f6c634300081a0033",
  "linkReferences": {},
  "deployedLinkReferences": {}
}