{
  "_format": "hh-sol-artifact-1",
  "contractName": "AutonomousBountyDuel",
  "sourceName": "contracts/AutonomousBountyDuel.sol",
  "abi": [
    {
      "inputs": [],
      "stateMutability": "nonpayable",
      "type": "constructor"
    },
    {
      "inputs": [
        {
          "internalType": "address",
          "name": "sender",
          "type": "address"
        },
        {
          "internalType": "uint256",
          "name": "tokenId",
          "type": "uint256"
        },
        {
          "internalType": "address",
          "name": "owner",
          "type": "address"
        }
      ],
      "name": "ERC721IncorrectOwner",
      "type": "error"
    },
    {
      "inputs": [
        {
          "internalType": "address",
          "name": "operator",
          "type": "address"
        },
        {
          "internalType": "uint256",
          "name": "tokenId",
          "type": "uint256"
        }
      ],
      "name": "ERC721InsufficientApproval",
      "type": "error"
    },
    {
      "inputs": [
        {
          "internalType": "address",
          "name": "approver",
          "type": "address"
        }
      ],
      "name": "ERC721InvalidApprover",
      "type": "error"
    },
    {
      "inputs": [
        {
          "internalType": "address",
          "name": "operator",
          "type": "address"
        }
      ],
      "name": "ERC721InvalidOperator",
      "type": "error"
    },
    {
      "inputs": [
        {
          "internalType": "address",
          "name": "owner",
          "type": "address"
        }
      ],
      "name": "ERC721InvalidOwner",
      "type": "error"
    },
    {
      "inputs": [
        {
          "internalType": "address",
          "name": "receiver",
          "type": "address"
        }
      ],
      "name": "ERC721InvalidReceiver",
      "type": "error"
    },
    {
      "inputs": [
        {
          "internalType": "address",
          "name": "sender",
          "type": "address"
        }
      ],
      "name": "ERC721InvalidSender",
      "type": "error"
    },
    {
      "inputs": [
        {
          "internalType": "uint256",
          "name": "tokenId",
          "type": "uint256"
        }
      ],
      "name": "ERC721NonexistentToken",
      "type": "error"
    },
    {
      "anonymous": false,
      "inputs": [
        {
          "indexed": true,
          "internalType": "address",
          "name": "owner",
          "type": "address"
        },
        {
          "indexed": true,
          "internalType": "address",
          "name": "approved",
          "type": "address"
        },
        {
          "indexed": true,
          "internalType": "uint256",
          "name": "tokenId",
          "type": "uint256"
        }
      ],
      "name": "Approval",
      "type": "event"
    },
    {
      "anonymous": false,
      "inputs": [
        {
          "indexed": true,
          "internalType": "address",
          "name": "owner",
          "type": "address"
        },
        {
          "indexed": true,
          "internalType": "address",
          "name": "operator",
          "type": "address"
        },
        {
          "indexed": false,
          "internalType": "bool",
          "name": "approved",
          "type": "bool"
        }
      ],
      "name": "ApprovalForAll",
      "type": "event"
    },
    {
      "anonymous": false,
      "inputs": [
        {
          "indexed": true,
          "internalType": "uint256",
          "name": "bountyId",
          "type": "uint256"
        },
        {
          "indexed": true,
          "internalType": "address",
          "name": "poster",
          "type": "address"
        },
        {
          "indexed": true,
          "internalType": "address",
          "name": "target",
          "type": "address"
        },
        {
          "indexed": false,
          "internalType": "uint256",
          "name": "amount",
          "type": "uint256"
        }
      ],
      "name": "BountyPosted",
      "type": "event"
    },
    {
      "anonymous": false,
      "inputs": [
        {
          "indexed": true,
          "internalType": "address",
          "name": "owner",
          "type": "address"
        },
        {
          "indexed": true,
          "internalType": "uint256",
          "name": "tokenId",
          "type": "uint256"
        },
        {
          "indexed": false,
          "internalType": "uint64",
          "name": "hp",
          "type": "uint64"
        },
        {
          "indexed": false,
          "internalType": "uint64",
          "name": "attack",
          "type": "uint64"
        },
        {
          "indexed": false,
          "internalType": "uint64",
          "name": "defense",
          "type": "uint64"
        }
      ],
      "name": "CharacterMinted",
      "type": "event"
    },
    {
      "anonymous": false,
      "inputs": [
        {
          "indexed": true,
          "internalType": "address",
          "name": "owner",
          "type": "address"
        },
        {
          "indexed": true,
          "internalType": "uint256",
          "name": "tokenId",
          "type": "uint256"
        },
        {
          "indexed": false,
          "internalType": "uint64",
          "name": "hp",
          "type": "uint64"
        },
        {
          "indexed": false,
          "internalType": "uint64",
          "name": "attack",
          "type": "uint64"
        },
        {
          "indexed": false,
          "internalType": "uint64",
          "name": "defense",
          "type": "uint64"
        },
        {
          "indexed": false,
          "internalType": "uint32",
          "name": "wins",
          "type": "uint32"
        },
        {
          "indexed": false,
          "internalType": "uint32",
          "name": "losses",
          "type": "uint32"
        }
      ],
      "name": "CharacterUpdated",
      "type": "event"
    },
    {
      "anonymous": false,
      "inputs": [
        {
          "indexed": true,
          "internalType": "uint256",
          "name": "duelId",
          "type": "uint256"
        },
        {
          "indexed": true,
          "internalType": "address",
          "name": "target",
          "type": "address"
        },
        {
          "indexed": false,
          "internalType": "uint256",
          "name": "targetStake",
          "type": "uint256"
        },
        {
          "indexed": false,
          "internalType": "uint64",
          "name": "revealDeadline",
          "type": "uint64"
        }
      ],
      "name": "DuelAccepted",
      "type": "event"
    },
    {
      "anonymous": false,
      "inputs": [
        {
          "indexed": true,
          "internalType": "uint256",
          "name": "duelId",
          "type": "uint256"
        },
        {
          "indexed": false,
          "internalType": "uint256",
          "name": "returnedStake",
          "type": "uint256"
        },
        {
          "indexed": false,
          "internalType": "uint256",
          "name": "bountyReturned",
          "type": "uint256"
        }
      ],
      "name": "DuelCanceled",
      "type": "event"
    },
    {
      "anonymous": false,
      "inputs": [
        {
          "indexed": true,
          "internalType": "uint256",
          "name": "duelId",
          "type": "uint256"
        },
        {
          "indexed": true,
          "internalType": "uint256",
          "name": "bountyId",
          "type": "uint256"
        },
        {
          "indexed": true,
          "internalType": "address",
          "name": "challenger",
          "type": "address"
        },
        {
          "indexed": false,
          "internalType": "address",
          "name": "target",
          "type": "address"
        },
        {
          "indexed": false,
          "internalType": "uint256",
          "name": "challengerStake",
          "type": "uint256"
        },
        {
          "indexed": false,
          "internalType": "uint64",
          "name": "commitDeadline",
          "type": "uint64"
        }
      ],
      "name": "DuelCreated",
      "type": "event"
    },
    {
      "anonymous": false,
      "inputs": [
        {
          "indexed": true,
          "internalType": "uint256",
          "name": "duelId",
          "type": "uint256"
        },
        {
          "indexed": true,
          "internalType": "address",
          "name": "winner",
          "type": "address"
        },
        {
          "indexed": false,
          "internalType": "uint256",
          "name": "payout",
          "type": "uint256"
        },
        {
          "indexed": false,
          "internalType": "uint256",
          "name": "bountyAmount",
          "type": "uint256"
        },
        {
          "indexed": false,
          "internalType": "uint256",
          "name": "totalStakes",
          "type": "uint256"
        }
      ],
      "name": "DuelResolved",
      "type": "event"
    },
    {
      "anonymous": false,
      "inputs": [
        {
          "indexed": true,
          "internalType": "uint256",
          "name": "duelId",
          "type": "uint256"
        },
        {
          "indexed": true,
          "internalType": "address",
          "name": "player",
          "type": "address"
        },
        {
          "indexed": false,
          "internalType": "bytes32",
          "name": "commitment",
          "type": "bytes32"
        }
      ],
      "name": "MoveCommitted",
      "type": "event"
    },
    {
      "anonymous": false,
      "inputs": [
        {
          "indexed": true,
          "internalType": "uint256",
          "name": "duelId",
          "type": "uint256"
        },
        {
          "indexed": true,
          "internalType": "address",
          "name": "player",
          "type": "address"
        },
        {
          "indexed": false,
          "internalType": "enum AutonomousBountyDuel.Move",
          "name": "move",
          "type": "uint8"
        }
      ],
      "name": "MoveRevealed",
      "type": "event"
    },
    {
      "anonymous": false,
      "inputs": [
        {
          "indexed": true,
          "internalType": "address",
          "name": "from",
          "type": "address"
        },
        {
          "indexed": true,
          "internalType": "address",
          "name": "to",
          "type": "address"
        },
        {
          "indexed": true,
          "internalType": "uint256",
          "name": "tokenId",
          "type": "uint256"
        }
      ],
      "name": "Transfer",
      "type": "event"
    },
    {
      "inputs": [],
      "name": "COMMIT_WINDOW",
      "outputs": [
        {
          "internalType": "uint64",
          "name": "",
          "type": "uint64"
        }
      ],
      "stateMutability": "view",
      "type": "function"
    },
    {
      "inputs": [],
      "name": "REVEAL_WINDOW",
      "outputs": [
        {
          "internalType": "uint64",
          "name": "",
          "type": "uint64"
        }
      ],
      "stateMutability": "view",
      "type": "function"
    },
    {
      "inputs": [
        {
          "internalType": "uint256",
          "name": "duelId",
          "type": "uint256"
        },
        {
          "internalType": "uint256",
          "name": "targetTokenId",
          "type": "uint256"
        },
        {
          "internalType": "bytes32",
          "name": "targetCommit",
          "type": "bytes32"
        }
      ],
      "name": "acceptChallenge",
      "outputs": [],
      "stateMutability": "payable",
      "type": "function"
    },
    {
      "inputs": [
        {
          "internalType": "address",
          "name": "to",
          "type": "address"
        },
        {
          "internalType": "uint256",
          "name": "tokenId",
          "type": "uint256"
        }
      ],
      "name": "approve",
      "outputs": [],
      "stateMutability": "nonpayable",
      "type": "function"
    },
    {
      "inputs": [
        {
          "internalType": "address",
          "name": "owner",
          "type": "address"
        }
      ],
      "name": "balanceOf",
      "outputs": [
        {
          "internalType": "uint256",
          "name": "",
          "type": "uint256"
        }
      ],
      "stateMutability": "view",
      "type": "function"
    },
    {
      "inputs": [
        {
          "internalType": "uint256",
          "name": "",
          "type": "uint256"
        }
      ],
      "name": "bounties",
      "outputs": [
        {
          "internalType": "address",
          "name": "poster",
          "type": "address"
        },
        {
          "internalType": "address",
          "name": "target",
          "type": "address"
        },
        {
          "internalType": "uint256",
          "name": "amount",
          "type": "uint256"
        },
        {
          "internalType": "bool",
          "name": "active",
          "type": "bool"
        }
      ],
      "stateMutability": "view",
      "type": "function"
    },
    {
      "inputs": [
        {
          "internalType": "uint256",
          "name": "",
          "type": "uint256"
        }
      ],
      "name": "characters",
      "outputs": [
        {
          "internalType": "uint64",
          "name": "hp",
          "type": "uint64"
        },
        {
          "internalType": "uint64",
          "name": "attack",
          "type": "uint64"
        },
        {
          "internalType": "uint64",
          "name": "defense",
          "type": "uint64"
        },
        {
          "internalType": "uint32",
          "name": "wins",
          "type": "uint32"
        },
        {
          "internalType": "uint32",
          "name": "losses",
          "type": "uint32"
        },
        {
          "internalType": "bool",
          "name": "initialized",
          "type": "bool"
        }
      ],
      "stateMutability": "view",
      "type": "function"
    },
    {
      "inputs": [
        {
          "internalType": "uint256",
          "name": "duelId",
          "type": "uint256"
        },
        {
          "internalType": "address",
          "name": "player",
          "type": "address"
        },
        {
          "internalType": "enum AutonomousBountyDuel.Move",
          "name": "move",
          "type": "uint8"
        },
        {
          "internalType": "bytes32",
          "name": "nonce",
          "type": "bytes32"
        }
      ],
      "name": "computeCommitment",
      "outputs": [
        {
          "internalType": "bytes32",
          "name": "",
          "type": "bytes32"
        }
      ],
      "stateMutability": "pure",
      "type": "function"
    },
    {
      "inputs": [
        {
          "internalType": "uint256",
          "name": "bountyId",
          "type": "uint256"
        },
        {
          "internalType": "uint256",
          "name": "challengerTokenId",
          "type": "uint256"
        },
        {
          "internalType": "bytes32",
          "name": "challengerCommit",
          "type": "bytes32"
        }
      ],
      "name": "createChallenge",
      "outputs": [
        {
          "internalType": "uint256",
          "name": "duelId",
          "type": "uint256"
        }
      ],
      "stateMutability": "payable",
      "type": "function"
    },
    {
      "inputs": [
        {
          "internalType": "uint256",
          "name": "",
          "type": "uint256"
        }
      ],
      "name": "duels",
      "outputs": [
        {
          "internalType": "uint256",
          "name": "bountyId",
          "type": "uint256"
        },
        {
          "internalType": "address",
          "name": "challenger",
          "type": "address"
        },
        {
          "internalType": "address",
          "name": "target",
          "type": "address"
        },
        {
          "internalType": "uint256",
          "name": "challengerTokenId",
          "type": "uint256"
        },
        {
          "internalType": "uint256",
          "name": "targetTokenId",
          "type": "uint256"
        },
        {
          "internalType": "uint256",
          "name": "challengerStake",
          "type": "uint256"
        },
        {
          "internalType": "uint256",
          "name": "targetStake",
          "type": "uint256"
        },
        {
          "internalType": "bytes32",
          "name": "challengerCommit",
          "type": "bytes32"
        },
        {
          "internalType": "bytes32",
          "name": "targetCommit",
          "type": "bytes32"
        },
        {
          "internalType": "bool",
          "name": "challengerRevealed",
          "type": "bool"
        },
        {
          "internalType": "bool",
          "name": "targetRevealed",
          "type": "bool"
        },
        {
          "internalType": "enum AutonomousBountyDuel.Move",
          "name": "challengerMove",
          "type": "uint8"
        },
        {
          "internalType": "enum AutonomousBountyDuel.Move",
          "name": "targetMove",
          "type": "uint8"
        },
        {
          "internalType": "uint64",
          "name": "commitDeadline",
          "type": "uint64"
        },
        {
          "internalType": "uint64",
          "name": "revealDeadline",
          "type": "uint64"
        },
        {
          "internalType": "enum AutonomousBountyDuel.DuelState",
          "name": "state",
          "type": "uint8"
        },
        {
          "internalType": "address",
          "name": "winner",
          "type": "address"
        }
      ],
      "stateMutability": "view",
      "type": "function"
    },
    {
      "inputs": [
        {
          "internalType": "uint256",
          "name": "tokenId",
          "type": "uint256"
        }
      ],
      "name": "getApproved",
      "outputs": [
        {
          "internalType": "address",
          "name": "",
          "type": "address"
        }
      ],
      "stateMutability": "view",
      "type": "function"
    },
    {
      "inputs": [
        {
          "internalType": "address",
          "name": "owner",
          "type": "address"
        },
        {
          "internalType": "address",
          "name": "operator",
          "type": "address"
        }
      ],
      "name": "isApprovedForAll",
      "outputs": [
        {
          "internalType": "bool",
          "name": "",
          "type": "bool"
        }
      ],
      "stateMutability": "view",
      "type": "function"
    },
    {
      "inputs": [],
      "name": "mintCharacter",
      "outputs": [
        {
          "internalType": "uint256",
          "name": "tokenId",
          "type": "uint256"
        }
      ],
      "stateMutability": "nonpayable",
      "type": "function"
    },
    {
      "inputs": [],
      "name": "name",
      "outputs": [
        {
          "internalType": "string",
          "name": "",
          "type": "string"
        }
      ],
      "stateMutability": "view",
      "type": "function"
    },
    {
      "inputs": [],
      "name": "nextBountyId",
      "outputs": [
        {
          "internalType": "uint256",
          "name": "",
          "type": "uint256"
        }
      ],
      "stateMutability": "view",
      "type": "function"
    },
    {
      "inputs": [],
      "name": "nextDuelId",
      "outputs": [
        {
          "internalType": "uint256",
          "name": "",
          "type": "uint256"
        }
      ],
      "stateMutability": "view",
      "type": "function"
    },
    {
      "inputs": [],
      "name": "nextTokenId",
      "outputs": [
        {
          "internalType": "uint256",
          "name": "",
          "type": "uint256"
        }
      ],
      "stateMutability": "view",
      "type": "function"
    },
    {
      "inputs": [
        {
          "internalType": "uint256",
          "name": "tokenId",
          "type": "uint256"
        }
      ],
      "name": "ownerOf",
      "outputs": [
        {
          "internalType": "address",
          "name": "",
          "type": "address"
        }
      ],
      "stateMutability": "view",
      "type": "function"
    },
    {
      "inputs": [
        {
          "internalType": "address",
          "name": "target",
          "type": "address"
        }
      ],
      "name": "postBounty",
      "outputs": [
        {
          "internalType": "uint256",
          "name": "bountyId",
          "type": "uint256"
        }
      ],
      "stateMutability": "payable",
      "type": "function"
    },
    {
      "inputs": [
        {
          "internalType": "uint256",
          "name": "duelId",
          "type": "uint256"
        }
      ],
      "name": "resolveDuel",
      "outputs": [],
      "stateMutability": "nonpayable",
      "type": "function"
    },
    {
      "inputs": [
        {
          "internalType": "uint256",
          "name": "duelId",
          "type": "uint256"
        },
        {
          "internalType": "enum AutonomousBountyDuel.Move",
          "name": "move",
          "type": "uint8"
        },
        {
          "internalType": "bytes32",
          "name": "nonce",
          "type": "bytes32"
        }
      ],
      "name": "revealMove",
      "outputs": [],
      "stateMutability": "nonpayable",
      "type": "function"
    },
    {
      "inputs": [
        {
          "internalType": "address",
          "name": "from",
          "type": "address"
        },
        {
          "internalType": "address",
          "name": "to",
          "type": "address"
        },
        {
          "internalType": "uint256",
          "name": "tokenId",
          "type": "uint256"
        }
      ],
      "name": "safeTransferFrom",
      "outputs": [],
      "stateMutability": "nonpayable",
      "type": "function"
    },
    {
      "inputs": [
        {
          "internalType": "address",
          "name": "from",
          "type": "address"
        },
        {
          "internalType": "address",
          "name": "to",
          "type": "address"
        },
        {
          "internalType": "uint256",
          "name": "tokenId",
          "type": "uint256"
        },
        {
          "internalType": "bytes",
          "name": "data",
          "type": "bytes"
        }
      ],
      "name": "safeTransferFrom",
      "outputs": [],
      "stateMutability": "nonpayable",
      "type": "function"
    },
    {
      "inputs": [
        {
          "internalType": "address",
          "name": "operator",
          "type": "address"
        },
        {
          "internalType": "bool",
          "name": "approved",
          "type": "bool"
        }
      ],
      "name": "setApprovalForAll",
      "outputs": [],
      "stateMutability": "nonpayable",
      "type": "function"
    },
    {
      "inputs": [
        {
          "internalType": "bytes4",
          "name": "interfaceId",
          "type": "bytes4"
        }
      ],
      "name": "supportsInterface",
      "outputs": [
        {
          "internalType": "bool",
          "name": "",
          "type": "bool"
        }
      ],
      "stateMutability": "view",
      "type": "function"
    },
    {
      "inputs": [],
      "name": "symbol",
      "outputs": [
        {
          "internalType": "string",
          "name": "",
          "type": "string"
        }
      ],
      "stateMutability": "view",
      "type": "function"
    },
    {
      "inputs": [
        {
          "internalType": "uint256",
          "name": "tokenId",
          "type": "uint256"
        }
      ],
      "name": "tokenURI",
      "outputs": [
        {
          "internalType": "string",
          "name": "",
          "type": "string"
        }
      ],
      "stateMutability": "view",
      "type": "function"
    },
    {
      "inputs": [
        {
          "internalType": "address",
          "name": "from",
          "type": "address"
        },
        {
          "internalType": "address",
          "name": "to",
          "type": "address"
        },
        {
          "internalType": "uint256",
          "name": "tokenId",
          "type": "uint256"
        }
      ],
      "name": "transferFrom",
      "outputs": [],
      "stateMutability": "nonpayable",
      "type": "function"
    }
  ],
  "bytecode": "0x60806040523461033057604080519081016001600160401b03811182821017610246576040908152601482527f4d6f6e6164204475656c20436861726163746572000000000000000000000000602083015280519081016001600160401b038111828210176102465760405260038152624d444360e81b602082015281516001600160401b038111610246575f54600181811c91168015610326575b602082101461022857601f81116102c4575b50602092601f821160011461026557928192935f9261025a575b50508160011b915f199060031b1c1916175f555b80516001600160401b03811161024657600154600181811c9116801561023c575b602082101461022857601f81116101c5575b50602091601f8211600114610165579181925f9261015a575b50508160011b915f199060031b1c1916176001555b60016006556001600755600160085560405161297690816103358239f35b015190505f80610127565b601f1982169260015f52805f20915f5b8581106101ad57508360019510610195575b505050811b0160015561013c565b01515f1960f88460031b161c191690555f8080610187565b91926020600181928685015181550194019201610175565b60015f527fb10e2d527612073b26eecdfd717e6a320cf44b4afac2b0732d9fcbe2b7fa0cf6601f830160051c8101916020841061021e575b601f0160051c01905b818110610213575061010e565b5f8155600101610206565b90915081906101fd565b634e487b7160e01b5f52602260045260245ffd5b90607f16906100fc565b634e487b7160e01b5f52604160045260245ffd5b015190505f806100c7565b601f198216935f8052805f20915f5b8681106102ac5750836001959610610294575b505050811b015f556100db565b01515f1960f88460031b161c191690555f8080610287565b91926020600181928685015181550194019201610274565b5f80527f290decd9548b62a8d60345a988386fc84ba6bc95484008f6362f93160ef3e563601f830160051c8101916020841061031c575b601f0160051c01905b81811061031157506100ad565b5f8155600101610304565b90915081906102fb565b90607f169061009b565b5f80fdfe6080806040526004361015610012575f80fd5b5f905f3560e01c90816301ffc9a7146117925750806306fdde03146116da578063081812fc1461169e578063095ea7b3146115b457806317e931cf1461058f57806323b872dd1461159d57806342842e0e1461156e5780634810bc59146114f0578063549ec614146114d3578063626ccff8146113635780636352211e1461133357806370a08231146112e257806372722f67146110c157806375794a3c146110a4578063859a62d014610f8157806395d89b4114610e79578063a22cb46514610dbc578063b6c3bc5c14610b45578063b88d4fde14610ab0578063c87b56dd14610a57578063cdd69a1214610a37578063dc2f8744146109d5578063e8d0f33f14610594578063e97f6a681461058f578063e985e9c514610537578063f9e067e5146104a3578063faf039f4146101725763fd14fad414610152575f80fd5b3461016f578060031936011261016f576020600754604051908152f35b80fd5b503461016f578060031936011261016f5760065461018f81611aa1565b6006556020916040516101a284826118ca565b818152331561048f575f8381526002855260409020546001600160a01b0316801515908161045e575b335f8181526003885260408082208054600101905587825260028952812080546001600160a01b0319168317905586919083907fddf252ad1be2c89b69c2b068fc378daa952ba7f163c4a11628f55a4df523b3ef9080a45061044a5783333b610362575b50506040519060c082018281106001600160401b0382111761034e57604090815260648352600c8584019081526008848301908152606085018481526080808701868152600160a089018181528a895260098c52978790209851955194519351915160c09290921b63ffffffff60c01b169390921b67ffffffffffffffff60801b166001600160401b039095169390951b67ffffffffffffffff60401b169290921792909217919091176001600160e01b031960e09390931b9290921691909117835590519101805460ff191691151560ff169190911790558060405160648152838101600c90526040810160089052339060607fac30aeeacea720b057ea7169c4d03966466f8d83ba5093d76012f6ddd84155be91a3604051908152f35b634e487b7160e01b5f52604160045260245ffd5b61039a9160405180938192630a85bd0160e11b83523360048401525f60248401528760448401526080606484015260848301906117fd565b03815f335af15f9181610406575b506103d557836103b661231e565b80519190826103d257633250574960e11b5f523360045260245ffd5b01fd5b6001600160e01b03191663757a42ff60e11b016103f3575f8361022f565b633250574960e11b5f523360045260245ffd5b9091508481813d8311610443575b61041e81836118ca565b8101031261043f57516001600160e01b03198116810361043f57905f6103a8565b5f80fd5b503d610414565b6339e3563760e11b82526004829052602482fd5b5f8581526004602052604080822080546001600160a01b031916905582825260038852902080545f190190556101cb565b633250574960e11b82526004829052602482fd5b503461016f57608036600319011261016f576104bd611837565b9060443590600382101561016f575060408051600435602082810191825260609590951b6bffffffffffffffffffffffff19169282019290925260f89290921b6001600160f81b031916605483015260643560558301529061052c81607581015b03601f1981018352826118ca565b519020604051908152f35b503461016f57604036600319011261016f576040610553611821565b9161055c611837565b9260018060a01b031681526005602052209060018060a01b03165f52602052602060ff60405f2054166040519015158152f35b61184d565b5061059e366118b0565b918084929452600a602052604082206105bd60ff6003830154166122ac565b6105c6856122ea565b336001600160a01b03909116036109905760018101546001600160a01b0316331461094b576105f6841515611b83565b3415610915576008549361060985611aa1565b6008556001600160401b0361061d42611bbe565b169360018060a01b03600184015416966040519761022089018981106001600160401b0382111761034e576040528589523360208a0152604089015260608801528060808801523460a08801528060c08801528160e08801528061010088015280610120880152806101408801528061016088015280610180880152846101a0880152806101c088015260016101e0880152610200870196818852868252600b60205260408220918151835560018060a01b03602083015116600184019060018060a01b03166001600160601b0360a01b82541617905560018060a01b03604083015116600284019060018060a01b03166001600160601b0360a01b825416179055606082015160038401556080820151600484015560a0820151600584015560c0820151600684015560e082015160078401556101008201516008840155600983019161077e6101208201511515849060ff801983541691151516179055565b610140810151835461ff00191690151560081b61ff00161783556101608101516003811015610901576107b19084611b62565b610180810151600381101561090157906107ce6101e09285611b3f565b6101a081015184546101c083015173ffffffffffffffffffffffffffffffff000000001990911660209290921b6bffffffffffffffff00000000169190911760609190911b67ffffffffffffffff60601b1617845501519060058210156108ed5750815460ff60a01b191660a09190911b60ff60a01b161790559551600a9690960180546001600160a01b0319166001600160a01b039790971696909617909555604051948552602094339085907f554a5d15a082f1f9f6e4aa87ae9c371a1374441e761d7f795ed28d4588d6b008908890a36001808060a01b03910154169160405192835234858401526040830152827f087f379deed47833600dfdf09969f5ab148242f24ec673c9880eb1e757e3bee560603394a4604051908152f35b634e487b7160e01b81526021600452602490fd5b634e487b7160e01b83526021600452602483fd5b60405162461bcd60e51b815260206004820152600e60248201526d1cdd185ad9481c995c5d5a5c995960921b6044820152606490fd5b60405162461bcd60e51b815260206004820152601c60248201527f7461726765742063616e6e6f742073656c662d6368616c6c656e6765000000006044820152606490fd5b60405162461bcd60e51b815260206004820152601a60248201527f6e6f74206368616c6c656e67657220746f6b656e206f776e65720000000000006044820152606490fd5b503461016f57602036600319011261016f5760406080916004358152600a6020522060018060a01b038154169060018060a01b036001820154169060ff6003600283015492015416916040519384526020840152604083015215156060820152f35b503461016f57602036600319011261016f57610a54600435611bda565b80f35b3461043f57602036600319011261043f57610a736004356122ea565b505f604051610a836020826118ca565b52610aac604051610a956020826118ca565b5f81526040519182916020835260208301906117fd565b0390f35b3461043f57608036600319011261043f57610ac9611821565b610ad1611837565b90604435606435926001600160401b03841161043f573660238501121561043f57836004013592610b01846118eb565b93610b0f60405195866118ca565b808552366024828801011161043f576020815f926024610b4399018389013786010152610b3d838383611906565b3361234d565b005b610b4e366118b0565b825f52600b60205260405f20906009820191825460ff8160a01c166005811015610da857600103610d735760028201546001600160a01b03163303610d405760201c6001600160401b03164211610d0a57336001600160a01b03610bb1866122ea565b1603610ccc57610bc2821515611b83565b60058101543403610c96576008816001600160401b03956004859401553460068201550155610c1b83610bf442611bbe565b845467ffffffffffffffff60601b1916911660601b67ffffffffffffffff60601b16178355565b815460ff60a01b1916600160a11b178255604051908152339084907f554a5d15a082f1f9f6e4aa87ae9c371a1374441e761d7f795ed28d4588d6b00890602090a35460601c16906040519134835260208301527f9c25b1480cdfd58968dd3a45b8205cf541d6b81654a19127d21907012af04dc660403393a3005b60405162461bcd60e51b815260206004820152600e60248201526d0e6e8c2d6ca40dad2e6dac2e8c6d60931b6044820152606490fd5b60405162461bcd60e51b81526020600482015260166024820152753737ba103a30b933b2ba103a37b5b2b71037bbb732b960511b6044820152606490fd5b60405162461bcd60e51b815260206004820152600e60248201526d18dbdb5b5a5d08195e1c1a5c995960921b6044820152606490fd5b60405162461bcd60e51b815260206004820152600b60248201526a1bdb9b1e481d185c99d95d60aa1b6044820152606490fd5b60405162461bcd60e51b815260206004820152600d60248201526c696e76616c696420737461746560981b6044820152606490fd5b634e487b7160e01b5f52602160045260245ffd5b3461043f57604036600319011261043f57610dd5611821565b602435908115159081830361043f573315610e66576001600160a01b0316918215610e5357610e2590335f52600560205260405f20845f5260205260405f209060ff801983541691151516179055565b6040519081527f17307eab39ab6107e8899845ad3d59bd9653f200f220920489ca2b5937696c3160203392a3005b82630b61174360e31b5f5260045260245ffd5b63a9fbf51f60e01b5f525f60045260245ffd5b3461043f575f36600319011261043f576040515f6001548060011c90600181168015610f77575b602083108114610f6357828552908115610f3f5750600114610ee1575b610aac83610ecd818503826118ca565b6040519182916020835260208301906117fd565b91905060015f527fb10e2d527612073b26eecdfd717e6a320cf44b4afac2b0732d9fcbe2b7fa0cf6915f905b808210610f2557509091508101602001610ecd610ebd565b919260018160209254838588010152019101909291610f0d565b60ff191660208086019190915291151560051b84019091019150610ecd9050610ebd565b634e487b7160e01b5f52602260045260245ffd5b91607f1691610ea0565b3461043f57602036600319011261043f576004355f52600b60205260405f20805460018060a01b036001830154166001600160401b0360018060a01b0360028501541660038501546004860154600587015460068801549060078901549260088a01549460098b01549660ff8860a01c169b600a60018060a01b0391015416996040519b8c5260208c015260408b015260608a0152608089015260a088015260c087015260e086015261010085015260ff8116151561012085015260ff8160081c16151561014085015261105f610160850160ff8360101c166118a3565b611073610180850160ff8360181c166118a3565b818160201c166101a085015260601c166101c08301526005831015610da857610220926101e0830152610200820152f35b3461043f575f36600319011261043f576020600654604051908152f35b3461043f57606036600319011261043f57602435600435600382101561043f57805f52600b60205260405f206009810180549060ff8260a01c166005811015610da8576002036112ab576001600160401b038260601c1642116112755760408051602081018681523360601b6bffffffffffffffffffffffff19169282019290925260f887901b6001600160f81b0319166054820152604435605582015286939190611170816075810161051e565b5190209060018060a01b0360018601541633145f146111ef57506111ba936111ae60019260078554936111a660ff861615611ac3565b015414611b02565b60ff1916178155611b62565b6111c760405180936118a3565b7fdd17665bf97c2a169e97f4f62f36023bf40807eb797a922864394a910d5c37c860203393a3005b600285015490949350336001600160a01b0390911603611239578361122761010092600889966111a660ff6112349a841c1615611ac3565b61ff001916178155611b3f565b6111ba565b60405162461bcd60e51b81526020600482015260146024820152731b9bdd08191d595b081c185c9d1a58da5c185b9d60621b6044820152606490fd5b60405162461bcd60e51b815260206004820152600e60248201526d1c995d99585b08195e1c1a5c995960921b6044820152606490fd5b60405162461bcd60e51b815260206004820152600f60248201526e6475656c206e6f742061637469766560881b6044820152606490fd5b3461043f57602036600319011261043f576001600160a01b03611303611821565b168015611320575f526003602052602060405f2054604051908152f35b6322718ad960e21b5f525f60045260245ffd5b3461043f57602036600319011261043f5760206113516004356122ea565b6040516001600160a01b039091168152f35b602036600319011261043f576001600160a01b0361137f611821565b16801561149d5734156114665760075461139881611aa1565b60075560405191608083018381106001600160401b0382111761034e5760409081523384526020808501838152348684019081526001606088018181525f888152600a865295909520975188546001600160a01b039182166001600160a01b0319918216178a559351918901805492909116919093161790915551600286015590516003909401805460ff191694151560ff1694909417909355604051348152827fac926dd55d652f00826eddedcce502a736f4d79f8ee2f1835335a9fac96d3e7f853393a4604051908152f35b60405162461bcd60e51b815260206004820152600f60248201526e189bdd5b9d1e481c995c5d5a5c9959608a1b6044820152606490fd5b60405162461bcd60e51b815260206004820152600e60248201526d1a5b9d985b1a59081d185c99d95d60921b6044820152606490fd5b3461043f575f36600319011261043f576020600854604051908152f35b3461043f57602036600319011261043f576004355f52600960205260c060405f2060ff6001825492015416604051916001600160401b03811683526001600160401b038160401c1660208401526001600160401b038160801c16604084015263ffffffff81851c16606084015260e01c6080830152151560a0820152f35b3461043f57610b4361157f36611869565b906040519261158f6020856118ca565b5f8452610b3d838383611906565b3461043f57610b436115ae36611869565b91611906565b3461043f57604036600319011261043f576115cd611821565b6024356115d9816122ea565b3315158061168b575b8061165e575b61164b5781906001600160a01b0384811691167f8c5be1e5ebec7d5bd14f71427d1e84f3dd0314c0f7b2291e5b200ac8c7c3b9255f80a45f90815260046020526040902080546001600160a01b0319166001600160a01b03909216919091179055005b63a9fbf51f60e01b5f523360045260245ffd5b506001600160a01b0381165f90815260056020908152604080832033845290915290205460ff16156115e8565b506001600160a01b0381163314156115e2565b3461043f57602036600319011261043f576004356116bb816122ea565b505f526004602052602060018060a01b0360405f205416604051908152f35b3461043f575f36600319011261043f576040515f80548060011c90600181168015611788575b602083108114610f6357828552908115610f3f575060011461172c57610aac83610ecd818503826118ca565b5f8080527f290decd9548b62a8d60345a988386fc84ba6bc95484008f6362f93160ef3e563939250905b80821061176e57509091508101602001610ecd610ebd565b919260018160209254838588010152019101909291611756565b91607f1691611700565b3461043f57602036600319011261043f576004359063ffffffff60e01b821680920361043f576020916380ac58cd60e01b81149081156117ec575b81156117db575b5015158152f35b6301ffc9a760e01b149050836117d4565b635b5e139f60e01b811491506117cd565b805180835260209291819084018484015e5f828201840152601f01601f1916010190565b600435906001600160a01b038216820361043f57565b602435906001600160a01b038216820361043f57565b3461043f575f36600319011261043f5760206040516104b08152f35b606090600319011261043f576004356001600160a01b038116810361043f57906024356001600160a01b038116810361043f579060443590565b906003821015610da85752565b606090600319011261043f57600435906024359060443590565b90601f801991011681019081106001600160401b0382111761034e57604052565b6001600160401b03811161034e57601f01601f191660200190565b6001600160a01b0390911691908215611a8e575f828152600260205260409020546001600160a01b0316928290331515806119f9575b50846119c6575b805f52600360205260405f2060018154019055815f52600260205260405f20816001600160601b0360a01b825416179055847fddf252ad1be2c89b69c2b068fc378daa952ba7f163c4a11628f55a4df523b3ef5f80a46001600160a01b03168083036119ae57505050565b6364283d7b60e01b5f5260045260245260445260645ffd5b5f82815260046020526040902080546001600160a01b0319169055845f52600360205260405f205f198154019055611943565b90915080611a3d575b15611a0f5782905f61193c565b8284611a2757637e27328960e01b5f5260045260245ffd5b63177e802f60e01b5f523360045260245260445ffd5b503384148015611a6c575b80611a0257505f838152600460205260409020546001600160a01b03163314611a02565b505f84815260056020908152604080832033845290915290205460ff16611a48565b633250574960e11b5f525f60045260245ffd5b5f198114611aaf5760010190565b634e487b7160e01b5f52601160045260245ffd5b15611aca57565b60405162461bcd60e51b815260206004820152601060248201526f185b1c9958591e481c995d99585b195960821b6044820152606490fd5b15611b0957565b60405162461bcd60e51b815260206004820152600e60248201526d1a5b9d985b1a59081c995d99585b60921b6044820152606490fd5b906003811015610da85763ff00000082549160181b169063ff0000001916179055565b906003811015610da85762ff000082549160101b169062ff00001916179055565b15611b8a57565b60405162461bcd60e51b815260206004820152600c60248201526b195b5c1d1e4818dbdb5b5a5d60a21b6044820152606490fd5b906104b08201809211611aaf57565b91908201809211611aaf57565b805f52600b60205260405f206009810190815460ff8160a01c16600581101580610da8576002821480156122a0575b1561226757610da85760011461216b575090805460ff811680809161215e575b15612113575b8080612106575b15611fc5575050611c478284612469565b925b82545f52600a60205260405f206003810192611c6860ff8554166122ac565b805460ff60a01b1916600360a01b179055600a840180546001600160a01b0319166001600160a01b03878116918217909255600186015490911680821491908215611fbf575060028601546001600160a01b0316955b8215611fb4576003810154925b15611fa9576004810154975b835f52600960205260405f20895f526009602052600260405f2096611d28611d0863ffffffff855460c01c166128ec565b845463ffffffff60c01b191660c09190911b63ffffffff60c01b16178455565b6001600160401b03835460401c1667fffffffffffffffe8110611f6a575b50611d77611d57895460e01c6128ec565b89546001600160e01b031660e09190911b6001600160e01b031916178955565b6001600160401b03885460801c1667fffffffffffffffe8110611f30575b5001978854926005850194855490600601908154611db291611bcd565b95611dbd8787611bcd565b9b8c9460ff1981541690555f90555f90555f90555a5f809381938293f1611de261231e565b5015611efb5783611ef6977fdf43b094ba4a5aee132a3f0d4777442475fef56a492305b7cac37ac14ab7867160607f6de74d2b1166d50651508fb07ed38b5142fbb778a52e9d4d8202dbd5f493c7219b8c97611e989760405192835260208301526040820152a354604080516001600160401b03808416825283831c81166020830152608084811c9091169282019290925260c083901c63ffffffff16606082015260e09290921c9082015290819060a0820190565b0390a354604080516001600160401b03808416825283831c81166020830152608084811c9091169282019290925260c083901c63ffffffff16606082015260e09290921c908201526001600160a01b039093169290819060a0820190565b0390a3565b60405162461bcd60e51b815260206004820152600d60248201526c1c185e5bdd5d0819985a5b1959609a1b6044820152606490fd5b611f3c611f6491612904565b895467ffffffffffffffff60801b191660809190911b67ffffffffffffffff60801b16178955565b5f611d95565b611f76611fa391612904565b84546fffffffffffffffff0000000000000000191660409190911b67ffffffffffffffff60401b16178455565b5f611d46565b600381015497611cd7565b600481015492611ccb565b95611cbe565b80806120f8575b15611fe757505060018201546001600160a01b031692611c49565b1590816120ea575b50156120095760028201546001600160a01b031692611c49565b81545f52600a60205260405f209061202760ff6003840154166122ac565b805460ff60a01b1916600160a21b1790556005820180546006909301805491935f9283916120559190611bcd565b9455555f8080808560018060a01b038654165af161207161231e565b50156120ad577fbf0cd88aa8492edfec7978a474f6f3d2e3de0783e62c028fa89754c5bfd643fb916002604092015482519182526020820152a2565b60405162461bcd60e51b81526020600482015260156024820152741cdb185cda081d1c985b9cd9995c8819985a5b1959605a1b6044820152606490fd5b60ff915060081c165f611fef565b5060ff8260081c1615611fcc565b5060ff8260081c16611c36565b6001600160401b038260601c164211611c2f5760405162461bcd60e51b815260206004820152601060248201526f6177616974696e672072657665616c7360801b6044820152606490fd5b5060ff8260081c16611c29565b60201c6001600160401b031642111561222957815460ff60a01b1916600160a21b179091556005810180545f9182905560019092015481908190819085906001600160a01b03165af16121bc61231e565b50156121f45760407fbf0cd88aa8492edfec7978a474f6f3d2e3de0783e62c028fa89754c5bfd643fb9181519081525f6020820152a2565b60405162461bcd60e51b815260206004820152600d60248201526c1c99599d5b990819985a5b1959609a1b6044820152606490fd5b60405162461bcd60e51b81526020600482015260166024820152757374696c6c20696e20636f6d6d69742077696e646f7760501b6044820152606490fd5b60405162461bcd60e51b8152602060048201526011602482015270185b1c9958591e48199a5b985b1a5e9959607a1b6044820152606490fd5b50505f60018214611c09565b156122b357565b60405162461bcd60e51b815260206004820152600f60248201526e626f756e747920696e61637469766560881b6044820152606490fd5b5f818152600260205260409020546001600160a01b031690811561230c575090565b637e27328960e01b5f5260045260245ffd5b3d15612348573d9061232f826118eb565b9161233d60405193846118ca565b82523d5f602084013e565b606090565b823b61235b575b5050505050565b604051630a85bd0160e11b81526001600160a01b0391821660048201529181166024830152604482019390935260806064820152911691602090829081906123a79060848301906117fd565b03815f865af15f9181612417575b506123e357506123c361231e565b805190816123de5782633250574960e11b5f5260045260245ffd5b602001fd5b6001600160e01b03191663757a42ff60e11b0161240557505f80808080612354565b633250574960e11b5f5260045260245ffd5b9091506020813d602011612454575b81612433602093836118ca565b8101031261043f57516001600160e01b03198116810361043f57905f6123b5565b3d9150612426565b91908203918211611aaf57565b60038201545f90815260096020526040808220600485015483529120600182015460ff16806128de575b156128a557600984015460ff808260101c169160181c169254926001600160401b038460401c169254906001600160401b038260401c169260038110159485610da85781158080612894575b156126a25750608184901c677fffffffffffffff168082111561269a576125059161245c565b93608187901c677fffffffffffffff1680821115612692576125269161245c565b945b610da85760021461266e575b6003811015610da857600214612637575b6001600160401b031681811115612626576001600160401b03916125689161245c565b925b16908082111561261d5761257d9161245c565b905b80821161260a57116125f957600160028184015493015491604051602081019182526001600160601b03198560601b1660408201526001600160601b03198460601b166054820152604881526125d66068826118ca565b519020166125eb57506001600160a01b031690565b6001600160a01b0316919050565b50600201546001600160a01b031690565b505050600101546001600160a01b031690565b50505f9061257f565b50506001600160401b035f9261256a565b90600881111561265f576007198101908111611aaf576001600160401b03905b919050612545565b506001600160401b035f612657565b92600881111561268b576007198101908111611aaf575b92612534565b505f612685565b50505f612526565b50505f612505565b90919495505f958180612881575b156126ef5750506001600160401b036126cd818560801c16612922565b16808211156126e7576126df9161245c565b925f94612528565b50505f6126df565b5f9650908061286e575b1561272a575060068101809111611aaf57608183901c677fffffffffffffff16808211156126e7576126df9161245c565b5f955093905060018114808061285d575b1561277957505f936001600160401b03612759818960801c16612922565b16808211156127715761276b9161245c565b94612528565b50505f61276b565b5f95509093818061284a575b156127955750505f925f94612528565b5f95509080612837575b156127ae57505f925f94612528565b5f945092600281148080612826575b156127f057505f9360068101809111611aaf57608187901c677fffffffffffffff16808211156127715761276b9161245c565b945092505f9380612813575b1561280a575f925f94612528565b5f925f94612528565b506003811015610da857600181146127fc565b506003831015610da85782156127bd565b506003821015610da8576002821461279f565b506003831015610da85760018314612785565b506003831015610da857821561273b565b506003831015610da857600283146126f9565b506003841015610da857600184146126b0565b506003841015610da85783156124df565b60405162461bcd60e51b8152602060048201526011602482015270636861726163746572206d697373696e6760781b6044820152606490fd5b5060ff600182015416612493565b63ffffffff60019116019063ffffffff8211611aaf57565b6001600160401b036001911601906001600160401b038211611aaf57565b6001600160401b036006911601906001600160401b038211611aaf5756fea2646970667358221220cad92681f79def239dc1b1bd62d40091945fd13607b9cb2c8fa3fab9f7ba27f264736f6c634300081a0033",
  "linkReferences": {},
  "deployedLinkReferences": {}
}